:0400000080315328D0
:100008007E14803120007F08F5000B1D3E280B115F
:10001800730803193E2870307006173003197106EB
:100028000319382871088500700884005D3084073A
:100038008030853D0008F4007408F2000130F007B4
:100048000030F13D7208F400F40E25001308740620
:10005800CF39740693007208F4000230F436890B25
:100068003228740891003E28F301F001F101F201F1
:1000780021008E162700131E4E2813127308031D25
:100088004E28FF30F4007408F300F001F101F2018A
:1000980021008E1275082000FF007E1009008031B3
:1000A8005528F001F101F201F3017E10200097318B
:1000B800CF2F80347F347F347F347F347F347F3454
:1000C8007F347F347F347F347F347F347E347E3492
:1000D8007E347E347E347E347E347D347D347D348B
:1000E8007D347E347E347E347E347E347E347F3478
:1000F8007F347F347F347F3480348034803480345C
:10010800813481348134813481348134813482343E
:10011800823481348134813481348134813481342E
:10012800823482348234833484348434843485340D
:100138008534853485348434813480347F347C3408
:100148007A347A347834763477347734763477344A
:10015800783478347A347C347D347E348134823413
:1001680082348334843484348434853484348334CA
:100178008334813480347E347834783479347434F8
:100188007334763473347234763474347234763427
:10019800773477347B347E347D34823486348534C6
:1001A800863488348734873489348834873488346B
:1001B8008734873487348634843485348634853468
:1001C800863487348A348B348B3483347F34823456
:1001D8007B347534783476346F34743476347034D0
:1001E80070347434743474347B347D347D348234A4
:1001F800873485348634893487348734893488341D
:1002080086348634853483348334823480347F342E
:100218007F347E347C347C347A347334723474346E
:100228006F346D3470346F346F347534753473349F
:1002380077347B347A347E3482348134843489341C
:10024800893488348A3488348734883487348534C8
:1002580085348434853486348434833484348534D2
:10026800853489348A348B348C3492348A3480349B
:1002780087348134753478347A346F34713478340F
:1002880070346C3473347234703478347C347A3427
:100298007F3486348434843489348834853489348A
:1002A8008A34853487348834843485348634833476
:1002B800813481347F347E347A34743470347034C9
:1002C8006F346C346C346C346C3471347334723411
:1002D800753477347A347F348334833487348B3479
:1002E8008C348D348E348B348A348B348A3489340C
:1002F800883486348534873485348334853485342A
:10030800863489348B348D348E34923486347F34F9
:1003180088347E347334783478346C346F34783479
:100328006D346B347334703470347A347E347B3487
:1003380081348834873488348C34893487348B34D6
:100348008C348734883489348434853486348434CE
:10035800813480347F347A347134713473346B343B
:1003680069346F346C346B34733473346F3476346B
:100378007B347B348234873485348A3491348F34A7
:100388008E3491348E348B348F348E34883489345F
:100398008934853486348734843483348634873486
:1003A80089348D348E348F34913485348034863456
:1003B8007B347334763473346A34703475346C3403
:1003C8006C347234723473347C3480347D348334C6
:1003D800893488348A348D348A3488348C348C3423
:1003E800883488348734833485348634843481343B
:1003F800813478347034763474346B346D346E34BC
:1004080069346E34753471346F34763479347C34AD
:1004180084348734843488348D348D348E348F34E6
:100428008B348A348C348B348934883486348534DC
:100438008534863486348734863487348C349034D3
:10044800913493348E347B347F34833475347334ED
:1004580075346E3467346F3475346F346F34733475
:10046800733473347C3482348034823487348634F1
:1004780086348D348D34873488348A34863489348C
:100488008D3489348534833480347C347A347734B9
:100498006E3467346C346E346E34713471346D3448
:1004A8007034793479347B347F347D3482348534C4
:1004B800823486348A3489348B3489348734893455
:1004C800863484348A348834853488348934893449
:1004D8008C3490348D3496349C34943486346A3415
:1004E8006B346A346734783475346E346D347034F0
:1004F8007A348034823480347B3479347D34823465
:1005080083347F3479347A347B3480348B34863442
:1005180085348934853489348F34873483348034FE
:1005280072346C34693467346B34713474347734AE
:100538007C347D347C347934783479347B347F343A
:10054800843488348C348F348D348D348A348934AF
:1005580088348434853487348734873483348834C2
:100568008B348F3497349C34A334A3349B3467344E
:100578003F34513444345C348B347F347E34893492
:100588008C349634A034913474346B3467346934C1
:1005980079347D347134743481348E34A334A13485
:1005A8009134843474346F34763478346F347034DE
:1005B8006D346A347F34873475347B3480347934CD
:1005C8008334883477346E347334753482348D349C
:1005D80088348734883488348B3492348E34863423
:1005E80081347A347F348734833486348C34873446
:1005F8009A34A534AB34B834A63463342C34343448
:1006080033345B34A034A23498349634833483343E
:1006180094348734693460345B3463348A349B346B
:10062800903487347B34823495349D348E347B34D3
:1006380061345534683478348334883480346C3485
:100648007534793472347D347A346E3471347A3452
:100658007A3488348D3483348C348F3483348634BC
:1006680088347D3487348A3488348E348E348834A0
:1006780084348B34873491349634A234B234B2340F
:10068800703420342D341F344A34B134B734B33481
:100698009B3478346F347D34853469346734593405
:1006A8005B3487349A349D34993489347B34833469
:1006B8008F34823482346C345A34663475348434DA
:1006C800843478345D3462347E347D348F348634B7
:1006D800643463346D3481349834A1348E3488346E
:1006E800853480348B348D348B3489348A34913416
:1006F80099349C34963495349134A034AB349E3478
:100708005A341634233427346434BF34C834B334E9
:100718008E3462345434723487347C34763466349C
:1007280064348434A434A2349A3483346D347534F4
:1007380086348A348A347A3460345D346434753467
:1007480080348A3480347C347C34773471346B342C
:1007580067346D347F3491349E34A03490348034BF
:100768007D347F348A3496349B349B349E34993458
:100778009E34A234AB349D348E344A342034313420
:1007880037347E34AD34C134A9348F346D345434A5
:1007980071347034753473346C34763487349F34E0
:1007A80098349634853477347D3482348434843470
:1007B80077345734653474347A34933495348134C7
:1007C80077346F34643465346A346E3482349034E8
:1007D8009934A2349E348C348534803480348D34FA
:1007E8009834A334A634A1349F34973495346734AD
:1007F800343443343F346D34A834BD34A9348D3493
:100808007734573471347B34743470346A346834D0
:100818007E349F349B34923485346C347334823400
:10082800893480346A3463345D346F3482348B3471
:100838008E3485347D34743473346E346D34753449
:1008480080348B349C34A3349F3494348E3489346C
:100858008A348F349634933493349634903466348F
:100868004A345434513474349C34A934993482341D
:100878006B345A3469347A347F3485347F347B342A
:1008880083348C348D3488348034763474347E34B4
:10089800843476346D34643462346F347934843417
:1008A80087347E34783471347434743479347A34D7
:1008B80082348D349834A034983490348B348E3408
:1008C80094349A349E34A234933484344B343F3471
:1008D80049345E348E34A534A63488347B346A3483
:1008E800623472346F3472347B347F348834903499
:1008F800983485347E3478347B347D348A347C343F
:10090800663468345A346F347C348734863483349C
:100918007D34743470346E346F3475347E348D3471
:100928009A349E34A0349634993494349A34993451
:10093800963494348D346D34433457345E3477347C
:10094800A134AA3497347A3472345D346034733401
:10095800713478347D348B348B3491348F347D34D6
:100968007B347F347F348034853468346834693428
:100978006E348334863486347D347A3475347334F3
:100988007834703475347F3486349134983498349C
:100998008E34953495349C349A349D34913488340B
:1009A80071343D34573468347F34A034AA349C34CD
:1009B8007B347B346C34693474346E3470347734FB
:1009C8008C348A348F348D347B3476347D34863459
:1009D8008434883470346A346E34693475347C34C1
:1009E8008334813486348534753475347034723484
:1009F8007D348C34913495349B3491349B349C34BD
:100A08009A34963498348F3486346F344434573457
:100A180067347E349934A43498347F348334723400
:100A28006E3470347134713478348D348B348F343F
:100A380089347F347A34803484347F34793465342B
:100A48006D346C346C347B34803481348234893432
:100A58007B347834793477347E3484348F349234E8
:100A68009A349934983499349834973491349A3420
:100A78008C347B34553443345E34693485349C3447
:100A8800A0348D34873487346E346B3467346934DA
:100A98006E34893495348F34933487348134803478
:100AA8008434783476346F34673471346D346C340C
:100AB800763484348334883486347834773478349C
:100AC8007834793480348B349334A234A0349A3413
:100AD8009D349C3492349434953482347534503433
:100AE800533467346F3485348E3496348934903473
:100AF800863475346D346734693470348634873499
:100B08008C3488348A3489348934883477347A3414
:100B18006534683472346934673473347E347A34B3
:100B28008634853481347B347E347534743485342A
:100B38008534903498349A3499349F349E34973459
:100B48009E349C34883471344D34503464346E345B
:100B58007F348E3497348E349234863477346934C3
:100B6800673467346D347D34843487348A349534FB
:100B780088348A348A3480347634793466346034FC
:100B88006B34653476347D348334833484348234EE
:100B98007A347634743473347A34843489349334BC
:100BA8009B349C349C349E349934933493349834D5
:100BB80089347A3451344E346734663477348A341D
:100BC80093348A349B349334783470346F34683473
:100BD8006B347C347B3480348A34933489348B345A
:100BE8008B3483347F3476347A345F3459347534B3
:100BF800663466348034833483348734833473347E
:100C08007734783469347A348534803491349B3439
:100C1800993495349D34983494349C349534923472
:100C28009134753446345F346A34623475348634AA
:100C38008D34893495348A347834753479346A3407
:100C48006C346D3476347F348634883488348F3409
:100C58008834883482347E347A3475345D346A3426
:100C680077346934733483348034763482347D3411
:100C780074347734743476348034843487348D34DF
:100C880095348F349134983494349734953490341F
:100C98009D349C34943469345234763461345934F4
:100CA8006E348234803484349C3481347B34873489
:100CB800793466346834773473347A3485347F34DD
:100CC8008A3496348D34823487348C347D34743449
:100CD80067346B3473346D346F34743484348234D1
:100CE8007F347B34773479347234723475347E349B
:100CF80086348C348D348D3494349C3497349534C4
:100D0800953498349E348E349D349A3497346434B0
:100D180054347E34533456346E34763475347A34DD
:100D28008E347E34843495347A34773477347A3414
:100D3800733474347F34783489348F348B348B34FF
:100D4800913490348A348534823462346B347E34FE
:100D5800573463347B347734723485348434743450
:100D68008C3481347234853489347C3488348F34BB
:100D78008E348A34953496348E3490349234983440
:100D880099348B3495349F3491348F344D34753481
:100D9800763449345B346C3478346834833486343C
:100DA80091348B34933481347D348A346E34763480
:100DB80079347E3479348134893486349034873474
:100DC80089348A3489347E347234683477346D34A3
:100DD8005334733477346E34773482347C348734C4
:100DE80084348434843484348934833489348B342B
:100DF8008B34873489348B348F348A348A348F34F3
:100E08008F34883492348C349B349734AC346E34B9
:100E18005D3494345E34423459348C3455346934F6
:100E28008734853490348B349134803494348934C5
:100E38007234823480347834703476347E347B343F
:100E4800893480348B3491349234863489348A34AA
:100E58007D346134613477345C345F347134803488
:100E68007C348234893486348C347F347A347C34CC
:100E780082347A347E34863489348E3489348F349B
:100E88008F3492348A34823494348A3482348E345F
:100E98008D3496348E34AC34733462348E34633487
:100EA80050345734823455346834823475348D3430
:100EB80089348B347A3499348D3475348534883454
:100EC8008234703481347F347A3483347D34873487
:100ED8008A348B347D34843488347E3472345B3481
:100EE80077346E34593465347B3477346F348534D1
:100EF80082348E348B347F34833491348B34793418
:100F08008E348F34873489348934863489348A34EA
:100F18007B348534893482347C3486348B34803411
:100F280087348C34933495349C34723476349034CA
:100F38006A34583469347F345C34673479347734AC
:100F4800833483348734833498348F347E348734BD
:100F58008834823475347C34773478347834753412
:100F680079347A348034733479348034783476340C
:100F78007B347E3477347B34783478347C347C34F6
:100F88007B34803487348334863488348834893495
:100F980088348434853489347F34803480347E3492
:100FA8007C347A347C347E3480347B347F347F34B0
:100FB8008234813483348A3488348B348A34943448
:100FC8009A349734873480348B3478346B346A3469
:100FD8007134683466346D346C34773479347834E9
:100FE8007834873488347F348A348E34883485342E
:100FF800883482347C347C3479347734753474346E
:1010080076347B3479347C3482348434803481344B
:1010180085347F347E347C347C347A347F347F3436
:101028007C347E34833481347B3482348434843415
:1010380083348634873486348434813480347E34EF
:101048007C347C347A3479347C34803481347F3411
:1010580085348634863485348834883486348A34B2
:101068008A348D348F3492348E348A348434803484
:101078007C34753471346D346C346B346C346A344C
:101088006E347234773477347B34813484348734E3
:10109800843487348A34893485348034833483347F
:1010A8007D3479347C3480347E347D347C348334AC
:1010B80081347C3479347C34803478347A347A34AA
:1010C800833482347D348134833483347D347E3474
:1010D8007E3480347E347D34813482348434823466
:1010E8008534883486348634833483348334813435
:1010F8007D347D347F347E347A347A347E3481345E
:101108007E347F348534863485348334863486341B
:101118008434843482348334843481348134823412
:101128008334823484348434833482348134813403
:101138007E347F347D347C347B347C347B34793426
:101148007C347E347E347B347E3481347E347E3409
:101158007E347F3481347F347E34803484348134E7
:101168007C34813481347E347D347F347F347D34E3
:101178007F347D34803481347F347E3480348034CD
:101188007F3480347C3482348134813481348234B5
:101198008634813481348234853480348134803497
:1011A8007E3481347D347D347D347F347E347F34A5
:1011B80080347F347F34823482348034833483347F
:1011C80080347F3480347F347D347C347F347C3485
:1011D8007E34813480347E34803482347E3480346A
:1011E8007D347E3480347E347E347E348034803462
:1011F800803480348334823482348234803481343D
:1012080080347E347D347E3480347C347E347F3444
:101218007B347C347D347D347F347F347F347F3439
:10122800813480347F3482347F3483347C34803416
:10123800823480347E347E3480347E347F347D340E
:1012480081347E347F347F347D347D347C347C3407
:101258007C347C3480347E347F34813480348134EF
:1012680080348134813482348034803481348034D1
:1012780082348034823483347E34803480348034C1
:101288007B347C347D347B347C347D347E347F34D1
:10129800813480348134843481348334803482349A
:1012A8008034803482347F348034803483347C3496
:1012B800813480347D347E347D347F3481347D3490
:1012C8007C34803481347C347F3480347C347D3485
:1012D8007E3480347D3480347F347C34813481346E
:1012E8008334803482348034803482347C34833450
:1012F8007D347F347F347E347E347F347D34803453
:101308007F347F347F347D348134803480347F343B
:101318008634803482348034813481347E3480341D
:101328007F34813481347F347F3483347F34833411
:101338007F348134813480347F347E3480347E3409
:101348007D347F347C34803480347F3483347D34FE
:1013580082347D3481347D348134803480348234E5
:101368007B3481347E3480347C3480347E348034E1
:101378007D347E3480347E3481347F3480348034CC
:1013880080347D3481347D347F347F3481348134BA
:101398007E347F347E347F347E347E347F347D34B3
:1013A80080347F347F3482347F3482347F34813494
:1013B8007E347D3483347C347E3480347F3481348D
:1013C8007E3480347F3480347F347D347F3480347D
:1013D8007F347A3483347E347C3481347C34813471
:1013E8007E347E347D3480347F347D3480347E3462
:1013F80081347D3482347D3480347F347D3482344A
:101408007D3482347E3480347D347F347E3480343D
:10141800803480347F34803481347E3481347D3428
:1014280080347E3481347E34803482347F34813415
:101438007D3481347E3480347E347D3480347E340F
:101448007D347F3481347D347F347D347E347F3401
:1014580081347F347E3480347D3482347F347F34E9
:101468007E3480347D347F347F347E3481347D34DF
:1014780083347E34823480347F3480347F348234C1
:101488007E34803480347F3480347F347F348134B8
:101498007F3483347F3482348334813481347F349D
:1014A80084347F3480348134823481347F3482348C
:1014B8008034803480347F3480347F3481347D3488
:1014C8008134813481347F347E3481348034813472
:1014D8007B34823480347E3480347D3483347E346B
:1014E80080348034803482347F3481347E34823452
:1014F8007E347F347E34803484347F348234823442
:101508008034813481347F3483347D3481347E3433
:1015180081347F3482348234803484347E3483341A
:101528007F3482347D3483347F348334823481340D
:1015380084347D3484347D348034803483348034FE
:101548007F3481347F3480347F347F3482347F34F5
:1015580083347D3484348034833480347A348534DD
:10156800783485347A3484347D34813481347E34DB
:1015780082347E34843479348334793480348034CA
:101588007B3482347E3480347F347D3481347F34BC
:10159800833482348234803483347F34803480349A
:1015A8007D3484347C3483347D3482347A34823498
:1015B8007C347D34823481348034813484347E3484
:1015C80086347C3485347C3485347C3482347E346F
:1015D8007F3481347B3485347D3481348034823463
:1015E8007D3482348034813480348334803481344F
:1015F80082347F348034813480347D3481347C3447
:101608007E347C347C347B347D347B347B347E3450
:101618007E347E3480347F34813482348034813423
:1016280081348034803481347F347F347D34803415
:101638007D347F347D347D347E347C347F347D3416
:101648007E347E347F347E347E347F347E347E3400
:101658007F347F3480347F3480347F347F347E34E9
:101668007F347F347E347E347D347E347D347E34E2
:101678007D347D347D347D347E347D347D347E34D8
:101688007E347D347E347E347F347E347E347F34C1
:101698007F347F347F347F347F347F347F347F34AA
:1016A8007F347F347E347F347F347F347E347F349C
:1016B8007F347E347F347F347E347F34803480348A
:1016C8007F3480347F347F347F347F3480347F3478
:1016D80080347E347F347F347F347F347F347F346A
:1016E8007F347F347F347F347F347F347F347E345B
:1016F8007E347E347D347E347F347F347E347F3450
:101708007E347F347F347F347F347F347F347F343A
:101718008034803480347F347F347F347F347F3426
:101728007F347F3480347F3480347F348034803415
:1017380080348034803481347F3480348034803401
:1017480080348034803480348034803480348034F1
:1017580080348034803481348134813480348034DE
:101768008134803480348034803480347F348034D1
:101778007F3480347F347F348034803480348034C4
:1017880080348134803480348034803480347F34B1
:1017980080347F34803480348034803480348034A2
:1017A800803480348034803481348134813481348D
:1017B8008134813481348234823482348234823474
:1017C8008234813481348134813481348134813468
:1017D8008134813481348134813481348134813459
:1017E8008234813481348134823482348234833443
:1017F8008334843484348434843484348434843422
:10180800843484348534843484348434843484340F
:10181800843483348334833482348334823482340A
:101828008234813480347F347E347D347C347B341C
:10183800793478347734763475347534753475344E
:1018480076347734783479347B347D347F3480341B
:1018580082348334853487348834893489348A34AB
:101868008A348A348A348934893488348834883488
:1018780087348734873486348734893489348A3482
:101888008C348E349134953496348D348A348B3438
:1018980087347D347934793471346B3470347034EE
:1018A800683468346C346B346C347234783479341A
:1018B8007C3483348734883488348A348B348A344B
:1018C80088348634853482347F347A347634743478
:1018D80072346F346D346D346C346D346F347234EB
:1018E8007234753478347C347F3483348534873467
:1018F8008A348D348E348E348F348E348E348E34D4
:101908008E348E348D348D348E348D348E349034C0
:1019180092349434973490348434843481347834D1
:101928006F346F346B3463346534693462345D34D6
:101938006434683469346E3479347D347D34843465
:101948008C348D348D34903490348E348D348E3480
:101958008D348934853480347F347D3478347534DB
:1019680070346B346A346B34693466346734693480
:101978006B346F347234733477347D348034853407
:101988008B348D348E349034923491349234923432
:101998008F348E348D348D348B348B348B348B343C
:1019A8008C349134933492348D34813480347C3443
:1019B80075346E346C346A34633464346834633434
:1019C8006034653468346C3473347B347F348134E8
:1019D80087348B348C348E3490348F348C348C34FC
:1019E8008D348934873483347E347C347B34773443
:1019F800723471346E34693469346A3466346534E7
:101A08006A346B346B346F3475347534783481349C
:101A1800843485348A348F348E34913493349234B8
:101A28009234933492348E348E348E348C348B3496
:101A38008E34903493349434953489347D347F349F
:101A48007A3471346C346E34673460346634683494
:101A58005F346034673469346B3474347D347F3474
:101A6800823489348C348B348D348F3490348B3475
:101A78008B348C348834853485347F347A347A34A2
:101A88007834723470346F346B346A346C346A343A
:101A980068346D346F3470347334773478347D340B
:101AA8008234863488348B348F348F34933494342E
:101AB80094349434943496349234933493349334E1
:101AC800933497349A3498349234813483347E34FE
:101AD800753470346E346A34613464346934623411
:101AE8005F3467346A346A3470347A347C347F34CF
:101AF80086348E3489348E349334913491348F34CF
:101B080093348C348A34873482347E347D347A3406
:101B1800763473346E346E346D346B3468346B34AD
:101B28006D346A3470347A3477347B3481348A344F
:101B380088348D349534903499349B349E349D3454
:101B4800A334A134A234A734A734A334AA34A334C9
:101B5800993483346B3477345C3454345434583483
:101B680054344E3467346434653477347C347E348A
:101B78008634943499348D34993497349334913429
:101B88008F348C3486348C3485347E348334853475
:101B98007A346E3473347034633465346434633443
:101BA800623465346A346B34763478347F348934FB
:101BB8008D3495349834A134A034A434A1349E349F
:101BC800A2349D349B349B34A0349B349A34A03483
:101BD800A33490348E346B346F3468344A345334BD
:101BE80050345B3441345F346C34663472347C3442
:101BF8008A348A34963498349534A1349934933499
:101C0800923493348C3481348C34833482347B34EE
:101C180080347F346D346B34733465345B346334AF
:101C280062345A34613466346734723477347934C0
:101C38008434903490349634A534A334A534AA342B
:101C4800A934AA34A734A934A134AB34A434A234B7
:101C58009C34963477346B3472344E344F34513468
:101C680055344034573464345D346A3473348134C1
:101C78007E348F34913496349A349734963495342C
:101C88009634893489348C3485347F347F34833472
:101C980075346C3471346C345F345F34623460345E
:101CA8005B3463346A346C347034753482348B3406
:101CB8008D349834A334A534A634AB34B234A93463
:101CC800AA34AD34A934A234A7349934933479347E
:101CD80076346F34523459345534543444345C3483
:101CE8005934593462346D347234743486348434DB
:101CF8008D34913493349334983494348F349134AC
:101D08008F348234883482347A34723472346E3444
:101D1800623466345F3460345C34623465346A3407
:101D28006D347534813483348C3496349E34A034C5
:101D3800A934AF34AD34B334B234B034AE34A4348F
:101D48009F3481348134703461345D345A3454346E
:101D58004B345E3456345C3464346C346F347834C9
:101D6800813484348A348C348F348F3491348D3474
:101D78008C348F34823486348334773476347134B7
:101D88006F3465346A346834683464346A346D3462
:101D98006D347234793483348434903494349E347A
:101DA800A134A734AA34B134B034AD34AE34A73436
:101DB8009C34803489346F34603461345D345234F7
:101DC8004C34623453345D3463346E346E34773457
:101DD800853484348F348A349534903491348C34F7
:101DE8009034853480348234783473346F34723468
:101DF80064346B3468346A3466346E346D347134E8
:101E080079347E3485348F3494349934A434A634A8
:101E1800AD34B134B334B434B134AC34A0348A34CE
:101E28008D3471346A3463346034503455345A34E0
:101E380051345B345E346934673479347D348834A2
:101E480089349034973495349634973493348C3459
:101E5800883485347B34733472346B346834663434
:101E68006A3463346A346B346E347434783483344B
:101E78008534903496349F34A434AB34AE34B534BE
:101E8800AF34B234AA3493349D3480347A34743401
:101E98006D345F345F346634553461345F34643490
:101EA8006634703475347A34873481348D348B34A5
:101EB8008E3488348E348A347E348C347B347B344C
:101EC80078347C346F347934783472347A347734B3
:101ED8007C347B34833484348A3490349334993416
:101EE8009E34A034A334A034A5348D3494348B3478
:101EF80078347C3477347134683478346C346F34A3
:101F080072347334743474347B347A3484347B3468
:101F18008734853484347F348234843471347D3416
:101F2800793473346B347D346F3470347A34783464
:101F380077347E3486347F348C348D3493349634BD
:101F48009A34A034A434A234A334A2349C34863402
:101F580092347D346E3473346C34603460346D3450
:101F68005D3469346B34703472347C347E34843438
:101F78008B3487348F348F348C3485348E3480346A
:101F880077347D34783468347134733465346C3420
:101F980073346D3470347A347834803485348C34C6
:101FA80094349A349B34AA34A834A934A734AE3470
:101FB80095349234983475347A3475346C345A3490
:101FC8006C345E345B346434623464346A3473343D
:101FD80072348034803486348D348B3486348F3434
:101FE80088347E3482348334723477347D34713467
:101FF8006E347B3473346D347A34753477347C348E
:1020080084348434903490349D349D34A634A1347F
:10201800A6349E348A349C347D347D347A347634C4
:1020280064346D346E345E346C3467346A346B34C3
:10203800763473347C3480347F3488348634823404
:10204800883485347D3480347D34783476347834FB
:1020580075347334753476347434763479347C3426
:102068007A34843487348D348F3498349C349C3457
:10207800A2349E34A03488349634833477347D3443
:1020880073346C346934733462346B346C346B3449
:102098006C347334763478348134803486348734BD
:1020A8008534873488347E3482347F347934783484
:1020B80079347734753475347634763474347A34C4
:1020C80076347C347F348334853492348F34993435
:1020D8009D349F34A2349E34A034873499347E349E
:1020E8007A347B3472346734693473345B346F34D4
:1020F80069346B346C34763478347A34833481348C
:102108008B3485348734883486347F348134803402
:1021180074347B3476347634743478347634763464
:10212800793479347A347A348134813487348B340D
:10213800923492349C349C34A234A134A534923421
:10214800973490347734833473346D346334713412
:102158005E3461346D3461346A346D347834733488
:102168008234823486348B3489348D3485348D348A
:102178007C3489347B347A347D34733478347334E2
:1021880078346D347B3470347534793476347B34F8
:102198008234853487349634913499349E34A23409
:1021A800A134A534A4348D349E34853478348234F3
:1021B800723466346A34713457346D346934633434
:1021C8006C347234733477348134803486348A348E
:1021D80086348F34863487348A347F3481347F342C
:1021E800793472347D346C347534733472346E34AB
:1021F80078347334743480347B34843487348F3443
:102208008E349A3496349E34A134A434A434A5343C
:1022180090349B348534773484346B346A34663430
:102228006F3458346B34683463346C346F347534B9
:10223800753484347F34883489348A348C348F34C8
:1022480083348D348834793485347E3470347734EB
:102258007D346634773474346B346F347834723444
:10226800773480347C3487348A348E349234993489
:102278009634A3349E34A834A634AC3491349934BB
:1022880095346F3485347334643463346F3459341B
:102298005E346C345A3469346D346E3478347E3438
:1022A800803487349034863496348D3492348A342A
:1022B80097347C3483348B34673484347334733484
:1022C800683484345E3475347734673475347934DB
:1022D80076347B348E34793495348E348F349A3412
:1022E8009A349834A334A234A434A834A434883457
:1022F800A1347C347034833467345B3464346A3496
:1023080046346C3461345B346B3472346F347B34F0
:10231800873480348F348E348D3497348D349234AE
:102328008A348D3485347F34823474347E346A340C
:1023380079346E346C346B34733467346D34773479
:102348006C347A34793483347D348C348A349034E0
:1023580090349A3499349B34A034A1349D34A434F5
:10236800A134A934913489349E345D347E34713477
:102378005E3454346A345D344734783456346534C2
:102388006D34733477347F348A34833497348A34A1
:102398009434953491348D349134883480348A342B
:1023A800713483346F3477346E346F346D346734FA
:1023B800703464346C346D3470346B3481347134FB
:1023C800813485348534893496348E349B349D34F5
:1023D8009A34A0349D349F349A34A1349A349D346D
:1023E800A13493347234A234553469347434533478
:1023F80051345D3469343C347A345B346734733433
:1024080077348034853491348B349C3495349134CA
:10241800A13491348C3493348E347B348C347E34B0
:1024280069348834623470346F346A345C34743498
:1024380068345C347C346B3470347C348234793462
:102448008E3488348E349434953495349C34953451
:1024580094349D348C349134913489348C3483345D
:102468008F347F348D348A348F3488346834A4347C
:102478004E3475347C345B3462346C347A34493489
:102488008C3468346F3480347A34833484349234AE
:102498007C349D348434883495348034863487344D
:1024A8008434783488347C347C3480347D34723499
:1024B800833473346C3480346B346E3473347734CF
:1024C80065347A34763470347D3479347F348234A8
:1024D8007E348E348634873492348A348D348A3408
:1024E8009434863488349134853483348D348434F8
:1024F800803483348A3479348E3486349334763411
:102508007F349B344D348D3473346C345F3484346D
:1025180070345834963465347C347A348B347B3454
:10252800893497347D349B348C348934913489349C
:10253800853483348C34733488347A3479347F34F2
:10254800753482347234833473348434723471341D
:1025580081346D346F347D347A34683489347B3413
:1025680076348834813480348534893481348C34A9
:10257800873483348F3484348234873485347B348D
:10258800873480347E3483347F3485348234853490
:1025980085348B348934903491349A347134A2342C
:1025A8007E34673493346B346E34663487345234F3
:1025B8007834783464347D34723480347A348B34AB
:1025C8007D348A3490347C3491348A34823487342C
:1025D8008C3482348034933479348A348934843422
:1025E80086348934843480348A347934813480342C
:1025F80079347A347D347834683476346E3463349C
:102608007134753470347034853477347F3483345E
:102618008634833485348F348434923486348F34CA
:102628008A3487348834863487347F348D347E34D2
:1026380088348134873482348E34833495347E34BC
:1026480078349C3453348A3472346B346834793433
:1026580076345C3491346B347A3484348234843400
:10266800883491347F3495348A347E3497347D3479
:102678008534843486347A348334833476348634A7
:102688007B3480347B348434763480347E347634BE
:1026980080347A347D347834813479347A348034AF
:1026A8007A347C348134783476347D3471347634B9
:1026B8007834753475347B347A347A3480347E34A3
:1026C8007F348534833487348C3487348A348C342B
:1026D8008A3484348D348334843485348334803428
:1026E8008634813486348A34883487347434983410
:1026F8005F347E347B34653471346B3480345934C0
:1027080089346F347334853473348A347F348C3429
:1027180083348E3490347C349634863480348934CF
:1027280088347C347E348834723480347C34793410
:102738007A347C347A3478347E3476347C347C341D
:1027480079347E347E347D347D3483347D348134F1
:1027580083348134833483348334813482347434CD
:102768007F3474346F3477347334733473347F3410
:1027780074347F347F347D348434843486348834AC
:102788008C3485348D348934873488348734843460
:102798008334863481348534883482348D348A3461
:1027A8007134923474346D3483346C3473346934D2
:1027B8008034683474347F346C34843478348334AB
:1027C80084348A3488348834943485348C348B3413
:1027D8008834823483348634793481347B347B344E
:1027E8007D3478347B347D347A34753481347B3469
:1027F800783481347D3480347E3483348134813438
:102808008234823484348434833484348734823404
:10281800833485347D3474347B347434693474344B
:1028280073346A347334793473347B347F347E344C
:102838008434863487348C348E348A348D348E34A0
:1028480088348734893483348334853481348434B8
:102858008634833487348A347D34813485347334C0
:1028680078347A34743470347634793471347C340E
:102878007A347C3482348034853488348C3485349A
:102888008D348E3484348834873484347E3482346E
:102898007F347B347F3479347D347E347A347D34AC
:1028A8007F347D347C3480347F347F3480347F348B
:1028B8008034813480347F3482348034803482346C
:1028C800833480348434833480348534803482344F
:1028D800783478347A346F347434723476347334A8
:1028E80077347D347A34833480348534883488343A
:1028F8008A348C348D348A348B348A3487348634E1
:10290800833483348334803482348134833483340D
:102918008234883482347F3481347D347A34793413
:10292800793476347634793477347A347C347C3438
:1029380080348234843486348834893488348834C2
:10294800883484348434823480347F347D347D34D4
:102958007C347B347D347C347C347D347F347E34E9
:102968007E34803480347E347F3480347E347F34C7
:102978007F347F347E347F348034813482348334AE
:102988008334843484348234843481348134783494
:1029980079347934733474347334763474347834E1
:1029A8007A347B347E348134813484348734883477
:1029B800883489348934863487348534833482343E
:1029C8008134813480348234813482348434833451
:1029D80085348434843482347E347E347B347A344F
:1029E80078347834783477347A347A347B347E3473
:1029F800803482348434853486348634863486340C
:102A08008534833482348134803480347F347E3416
:102A18007E347E347E347E347E347E347F347E341D
:102A28007E347E347E347D347D347D347D347D3413
:102A38007E347E347E3480348034803481348234F1
:102A480082348234823481348234813480348034D4
:102A58007F347E347D347934783477347634763400
:102A680077347734763478347A3479347A347C34F9
:102A78007D347E348034833483348534863486349C
:102A8800873487348734873487348634853485346B
:102A980084348334823482348134803480347E3484
:102AA8007D347D347C347B347B347B347A347A34A3
:102AB8007B347A347A347B347B347B347D347D3494
:102AC8007E347F348034803481348234823482345A
:102AD80081348134813480347F347F347E347D3452
:102AE8007D347C347B347C347B347B347C347C3460
:102AF8007C347D347D347D347E347E347F347F3441
:102B0800803480348034813480348134813480341A
:102B18008034803480347F347F347F347D347B3418
:102B28007A34793479347834783478347734793439
:102B38007A3479347B347C347D347E348134823405
:102B480083348434853485348634863485348534B6
:102B580084348434833483348334823482348234B6
:102B6800813481348134813480347F347F347E34BD
:102B78007E347D347D347C347C347C347C347C34C9
:102B88007D347E347E347F348034803481348234A2
:102B98008234833483348334833484348334823476
:102BA8008234823481348134813480347F347F3478
:102BB8007E347E347E347F347E347F347F347F3479
:102BC8008034803481348034813481348134813458
:102BD8008234813481348134813481348134803445
:102BE80080347F347D347D347C347C347B347B3456
:102BF8007B347A347B347C347B347C347D347E344F
:102C08007E34803482348334843486348734873401
:102C180088348834883487348734863486348534D5
:102C280084348434833483348234823482348134E7
:102C3800803480347F347E347E347E347D347D34F9
:102C48007C347C347C347C347C347C347D347E34F9
:102C58007F348034813481348334833484348434BD
:102C680084348434843484348334823482348134A4
:102C7800813480347F347F347E347E347E347E34B5
:102C88007E347E347F347F347F34803480348034A3
:102C98008034803480348134813481348134813487
:102CA8008234823482348234813481348134813470
:102CB800803480347F347F347C347A347B34793484
:102CC800793479347934793479347B347B347C348D
:102CD8007D347E347F348034823482348334843447
:102CE8008434843484348434833483348334833420
:102CF8008234823481348134813480348034803425
:102D08008034803480347F347F347F347E347E3422
:102D18007E347E347D347D347E347D347E347E341E
:102D28007E347F347F347F348034803480348134FF
:102D380081348134813481348134813480348034E5
:102D480080347F347F347F347E347E347E347E34E6
:102D58007E347E347E347E347E347F347F347F34D8
:102D68007F347F347F347F347F347F3480347F34C2
:102D78007F347F347F347F347F347F347F347F34B3
:102D88007F347F347F347F347F347F347F347F34A3
:102D98007F347F347F347F347F347F347F34803492
:102DA800803480347F347E347F347E347E347E3485
:102DB8007E347E347E347E347F347E347E347F3479
:102DC8007E347F347F34803480348034813481345D
:102DD8008134813481348134813482348134813442
:102DE8008134813481348134813480348034803436
:102DF80080348134813481348034803480347F3429
:102E08007F347F347F347F347F347F347E347E3424
:102E18007F347E347F347F347F347F348034803411
:102E280080348134813481348134813481348134F3
:102E380081348134813480348034803480348034E7
:102E4800803480347F347F347F347F347F347F34E0
:102E58007F347F347F347F347F347F347F347F34D2
:102E68007F347F347F3480348034803480348034BD
:102E780080348034803480347F3480347F347F34AD
:102E88007F347F347F347F347F347F347F347F34A2
:102E98007F347F347F347F347F347F347F347F3492
:102EA8007F347F347F34803480348034803480347D
:102EB800803480348034803480348034803480346A
:102EC80080348034803480347F347E347E347E3461
:102ED8007E347E347E347E347D347E347E347E345B
:102EE8007E347F347F347F3480348034813481343D
:102EF8008134813481348134813481348134813422
:102F08008134813481348134803480348034803415
:102F18008034803480348034803480347F347F340B
:102F28007F347F347F347F347F347F347F347F3401
:102F38007F347F34803480348034803480348034EB
:102F480080348034803480348034803480348034D9
:102F580080348034803480347F347F347F347F34CD
:102F68007F347F347F347F347F347F347F347F34C1
:102F78007F347F347F347F347F347F347F348034B0
:102F88008034803480348034803480348034803499
:022F9800803483
:102F9E009731D3279731D22F7030210099005F30AF
:102FAE0095003F308C0023008C01103024008C00E3
:102FBE0022008C013F3021008E0023008E01240060
:102FCE008E0122008E0125009E014F3020009B00B5
:102FDE000C3025009300043020009C00A8308B009C
:102FEE0027009101103092009301F301F001F101DD
:022FFE000800C9
:020000040001F9
:04000E00E4FFFFDE2E
:00000001FF
